{
  "_format": "hh3-artifact-1",
  "contractName": "DEMOCOIN",
  "sourceName": "contracts/DEMOCOIN.sol",
  "abi": [
    {
      "inputs": [
        {
          "internalType": "address",
          "name": "hashProofAddress",
          "type": "address"
        }
      ],
      "stateMutability": "nonpayable",
      "type": "constructor"
    },
    {
      "inputs": [],
      "name": "AccessControlBadConfirmation",
      "type": "error"
    },
    {
      "inputs": [
        {
          "internalType": "address",
          "name": "account",
          "type": "address"
        },
        {
          "internalType": "bytes32",
          "name": "neededRole",
          "type": "bytes32"
        }
      ],
      "name": "AccessControlUnauthorizedAccount",
      "type": "error"
    },
    {
      "inputs": [
        {
          "internalType": "address",
          "name": "spender",
          "type": "address"
        },
        {
          "internalType": "uint256",
          "name": "allowance",
          "type": "uint256"
        },
        {
          "internalType": "uint256",
          "name": "needed",
          "type": "uint256"
        }
      ],
      "name": "ERC20InsufficientAllowance",
      "type": "error"
    },
    {
      "inputs": [
        {
          "internalType": "address",
          "name": "sender",
          "type": "address"
        },
        {
          "internalType": "uint256",
          "name": "balance",
          "type": "uint256"
        },
        {
          "internalType": "uint256",
          "name": "needed",
          "type": "uint256"
        }
      ],
      "name": "ERC20InsufficientBalance",
      "type": "error"
    },
    {
      "inputs": [
        {
          "internalType": "address",
          "name": "approver",
          "type": "address"
        }
      ],
      "name": "ERC20InvalidApprover",
      "type": "error"
    },
    {
      "inputs": [
        {
          "internalType": "address",
          "name": "receiver",
          "type": "address"
        }
      ],
      "name": "ERC20InvalidReceiver",
      "type": "error"
    },
    {
      "inputs": [
        {
          "internalType": "address",
          "name": "sender",
          "type": "address"
        }
      ],
      "name": "ERC20InvalidSender",
      "type": "error"
    },
    {
      "inputs": [
        {
          "internalType": "address",
          "name": "spender",
          "type": "address"
        }
      ],
      "name": "ERC20InvalidSpender",
      "type": "error"
    },
    {
      "inputs": [],
      "name": "EnforcedPause",
      "type": "error"
    },
    {
      "inputs": [],
      "name": "ExpectedPause",
      "type": "error"
    },
    {
      "anonymous": false,
      "inputs": [
        {
          "indexed": true,
          "internalType": "address",
          "name": "owner",
          "type": "address"
        },
        {
          "indexed": true,
          "internalType": "address",
          "name": "spender",
          "type": "address"
        },
        {
          "indexed": false,
          "internalType": "uint256",
          "name": "value",
          "type": "uint256"
        }
      ],
      "name": "Approval",
      "type": "event"
    },
    {
      "anonymous": false,
      "inputs": [
        {
          "indexed": true,
          "internalType": "address",
          "name": "user",
          "type": "address"
        },
        {
          "indexed": false,
          "internalType": "uint256",
          "name": "amount",
          "type": "uint256"
        },
        {
          "indexed": false,
          "internalType": "uint256",
          "name": "shares",
          "type": "uint256"
        }
      ],
      "name": "CollateralDeposit",
      "type": "event"
    },
    {
      "anonymous": false,
      "inputs": [
        {
          "indexed": true,
          "internalType": "address",
          "name": "user",
          "type": "address"
        },
        {
          "indexed": false,
          "internalType": "uint256",
          "name": "amount",
          "type": "uint256"
        },
        {
          "indexed": false,
          "internalType": "uint256",
          "name": "shares",
          "type": "uint256"
        }
      ],
      "name": "CollateralWithdraw",
      "type": "event"
    },
    {
      "anonymous": false,
      "inputs": [
        {
          "indexed": false,
          "internalType": "uint256",
          "name": "timestamp",
          "type": "uint256"
        }
      ],
      "name": "EmergencyModeActivated",
      "type": "event"
    },
    {
      "anonymous": false,
      "inputs": [
        {
          "indexed": false,
          "internalType": "uint256",
          "name": "timestamp",
          "type": "uint256"
        }
      ],
      "name": "EmergencyModeDeactivated",
      "type": "event"
    },
    {
      "anonymous": false,
      "inputs": [
        {
          "indexed": false,
          "internalType": "uint256",
          "name": "amount",
          "type": "uint256"
        },
        {
          "indexed": false,
          "internalType": "uint256",
          "name": "insuranceFund",
          "type": "uint256"
        },
        {
          "indexed": false,
          "internalType": "uint256",
          "name": "developmentFund",
          "type": "uint256"
        },
        {
          "indexed": false,
          "internalType": "uint256",
          "name": "marketingFund",
          "type": "uint256"
        }
      ],
      "name": "FeesCollected",
      "type": "event"
    },
    {
      "anonymous": false,
      "inputs": [
        {
          "indexed": true,
          "internalType": "address",
          "name": "miner",
          "type": "address"
        },
        {
          "indexed": false,
          "internalType": "uint256",
          "name": "amount",
          "type": "uint256"
        }
      ],
      "name": "MiningRewardClaimed",
      "type": "event"
    },
    {
      "anonymous": false,
      "inputs": [
        {
          "indexed": false,
          "internalType": "uint256",
          "name": "newRate",
          "type": "uint256"
        }
      ],
      "name": "MiningRewardRateUpdated",
      "type": "event"
    },
    {
      "anonymous": false,
      "inputs": [
        {
          "indexed": false,
          "internalType": "address",
          "name": "newOracle",
          "type": "address"
        }
      ],
      "name": "OracleUpdated",
      "type": "event"
    },
    {
      "anonymous": false,
      "inputs": [
        {
          "indexed": false,
          "internalType": "address",
          "name": "account",
          "type": "address"
        }
      ],
      "name": "Paused",
      "type": "event"
    },
    {
      "anonymous": false,
      "inputs": [
        {
          "indexed": false,
          "internalType": "uint256",
          "name": "newPrice",
          "type": "uint256"
        },
        {
          "indexed": false,
          "internalType": "uint256",
          "name": "timestamp",
          "type": "uint256"
        }
      ],
      "name": "PriceUpdated",
      "type": "event"
    },
    {
      "anonymous": false,
      "inputs": [
        {
          "indexed": true,
          "internalType": "bytes32",
          "name": "role",
          "type": "bytes32"
        },
        {
          "indexed": true,
          "internalType": "bytes32",
          "name": "previousAdminRole",
          "type": "bytes32"
        },
        {
          "indexed": true,
          "internalType": "bytes32",
          "name": "newAdminRole",
          "type": "bytes32"
        }
      ],
      "name": "RoleAdminChanged",
      "type": "event"
    },
    {
      "anonymous": false,
      "inputs": [
        {
          "indexed": true,
          "internalType": "bytes32",
          "name": "role",
          "type": "bytes32"
        },
        {
          "indexed": true,
          "internalType": "address",
          "name": "account",
          "type": "address"
        },
        {
          "indexed": true,
          "internalType": "address",
          "name": "sender",
          "type": "address"
        }
      ],
      "name": "RoleGranted",
      "type": "event"
    },
    {
      "anonymous": false,
      "inputs": [
        {
          "indexed": true,
          "internalType": "bytes32",
          "name": "role",
          "type": "bytes32"
        },
        {
          "indexed": true,
          "internalType": "address",
          "name": "account",
          "type": "address"
        },
        {
          "indexed": true,
          "internalType": "address",
          "name": "sender",
          "type": "address"
        }
      ],
      "name": "RoleRevoked",
      "type": "event"
    },
    {
      "anonymous": false,
      "inputs": [
        {
          "indexed": false,
          "internalType": "uint256",
          "name": "newAPY",
          "type": "uint256"
        }
      ],
      "name": "StablePoolAPYUpdated",
      "type": "event"
    },
    {
      "anonymous": false,
      "inputs": [
        {
          "indexed": true,
          "internalType": "address",
          "name": "user",
          "type": "address"
        },
        {
          "indexed": false,
          "internalType": "uint256",
          "name": "amount",
          "type": "uint256"
        },
        {
          "indexed": false,
          "internalType": "uint256",
          "name": "shares",
          "type": "uint256"
        }
      ],
      "name": "StablePoolDeposit",
      "type": "event"
    },
    {
      "anonymous": false,
      "inputs": [
        {
          "indexed": true,
          "internalType": "address",
          "name": "user",
          "type": "address"
        },
        {
          "indexed": false,
          "internalType": "uint256",
          "name": "amount",
          "type": "uint256"
        }
      ],
      "name": "StablePoolRewardClaimed",
      "type": "event"
    },
    {
      "anonymous": false,
      "inputs": [
        {
          "indexed": true,
          "internalType": "address",
          "name": "user",
          "type": "address"
        },
        {
          "indexed": false,
          "internalType": "uint256",
          "name": "amount",
          "type": "uint256"
        },
        {
          "indexed": false,
          "internalType": "uint256",
          "name": "shares",
          "type": "uint256"
        }
      ],
      "name": "StablePoolWithdraw",
      "type": "event"
    },
    {
      "anonymous": false,
      "inputs": [
        {
          "indexed": false,
          "internalType": "uint256",
          "name": "newFee",
          "type": "uint256"
        }
      ],
      "name": "TransactionFeeUpdated",
      "type": "event"
    },
    {
      "anonymous": false,
      "inputs": [
        {
          "indexed": true,
          "internalType": "address",
          "name": "from",
          "type": "address"
        },
        {
          "indexed": true,
          "internalType": "address",
          "name": "to",
          "type": "address"
        },
        {
          "indexed": false,
          "internalType": "uint256",
          "name": "value",
          "type": "uint256"
        }
      ],
      "name": "Transfer",
      "type": "event"
    },
    {
      "anonymous": false,
      "inputs": [
        {
          "indexed": false,
          "internalType": "address",
          "name": "account",
          "type": "address"
        }
      ],
      "name": "Unpaused",
      "type": "event"
    },
    {
      "inputs": [],
      "name": "ADMIN_ROLE",
      "outputs": [
        {
          "internalType": "bytes32",
          "name": "",
          "type": "bytes32"
        }
      ],
      "stateMutability": "view",
      "type": "function"
    },
    {
      "inputs": [],
      "name": "COLLATERAL_RATIO",
      "outputs": [
        {
          "internalType": "uint256",
          "name": "",
          "type": "uint256"
        }
      ],
      "stateMutability": "view",
      "type": "function"
    },
    {
      "inputs": [],
      "name": "DEFAULT_ADMIN_ROLE",
      "outputs": [
        {
          "internalType": "bytes32",
          "name": "",
          "type": "bytes32"
        }
      ],
      "stateMutability": "view",
      "type": "function"
    },
    {
      "inputs": [],
      "name": "EMERGENCY_MODE_DURATION",
      "outputs": [
        {
          "internalType": "uint256",
          "name": "",
          "type": "uint256"
        }
      ],
      "stateMutability": "view",
      "type": "function"
    },
    {
      "inputs": [],
      "name": "FEE_COLLECTOR_ROLE",
      "outputs": [
        {
          "internalType": "bytes32",
          "name": "",
          "type": "bytes32"
        }
      ],
      "stateMutability": "view",
      "type": "function"
    },
    {
      "inputs": [],
      "name": "GOVERNOR_ROLE",
      "outputs": [
        {
          "internalType": "bytes32",
          "name": "",
          "type": "bytes32"
        }
      ],
      "stateMutability": "view",
      "type": "function"
    },
    {
      "inputs": [],
      "name": "INITIAL_MINING_REWARD_RATE",
      "outputs": [
        {
          "internalType": "uint256",
          "name": "",
          "type": "uint256"
        }
      ],
      "stateMutability": "view",
      "type": "function"
    },
    {
      "inputs": [],
      "name": "INSURANCE_FEE_ALLOCATION",
      "outputs": [
        {
          "internalType": "uint256",
          "name": "",
          "type": "uint256"
        }
      ],
      "stateMutability": "view",
      "type": "function"
    },
    {
      "inputs": [],
      "name": "INSURANCE_FUND_TARGET",
      "outputs": [
        {
          "internalType": "uint256",
          "name": "",
          "type": "uint256"
        }
      ],
      "stateMutability": "view",
      "type": "function"
    },
    {
      "inputs": [],
      "name": "MAX_SUPPLY",
      "outputs": [
        {
          "internalType": "uint256",
          "name": "",
          "type": "uint256"
        }
      ],
      "stateMutability": "view",
      "type": "function"
    },
    {
      "inputs": [],
      "name": "TARGET_PRICE",
      "outputs": [
        {
          "internalType": "uint256",
          "name": "",
          "type": "uint256"
        }
      ],
      "stateMutability": "view",
      "type": "function"
    },
    {
      "inputs": [
        {
          "internalType": "address",
          "name": "owner",
          "type": "address"
        },
        {
          "internalType": "address",
          "name": "spender",
          "type": "address"
        }
      ],
      "name": "allowance",
      "outputs": [
        {
          "internalType": "uint256",
          "name": "",
          "type": "uint256"
        }
      ],
      "stateMutability": "view",
      "type": "function"
    },
    {
      "inputs": [
        {
          "internalType": "address",
          "name": "spender",
          "type": "address"
        },
        {
          "internalType": "uint256",
          "name": "value",
          "type": "uint256"
        }
      ],
      "name": "approve",
      "outputs": [
        {
          "internalType": "bool",
          "name": "",
          "type": "bool"
        }
      ],
      "stateMutability": "nonpayable",
      "type": "function"
    },
    {
      "inputs": [
        {
          "internalType": "address",
          "name": "account",
          "type": "address"
        }
      ],
      "name": "balanceOf",
      "outputs": [
        {
          "internalType": "uint256",
          "name": "",
          "type": "uint256"
        }
      ],
      "stateMutability": "view",
      "type": "function"
    },
    {
      "inputs": [
        {
          "internalType": "uint256",
          "name": "shares",
          "type": "uint256"
        }
      ],
      "name": "calculateCollateralAmount",
      "outputs": [
        {
          "internalType": "uint256",
          "name": "",
          "type": "uint256"
        }
      ],
      "stateMutability": "view",
      "type": "function"
    },
    {
      "inputs": [
        {
          "internalType": "uint256",
          "name": "amount",
          "type": "uint256"
        }
      ],
      "name": "calculateCollateralShares",
      "outputs": [
        {
          "internalType": "uint256",
          "name": "",
          "type": "uint256"
        }
      ],
      "stateMutability": "view",
      "type": "function"
    },
    {
      "inputs": [
        {
          "internalType": "address",
          "name": "miner",
          "type": "address"
        }
      ],
      "name": "calculateMiningReward",
      "outputs": [
        {
          "internalType": "uint256",
          "name": "",
          "type": "uint256"
        }
      ],
      "stateMutability": "view",
      "type": "function"
    },
    {
      "inputs": [],
      "name": "calculatePriceAdjustment",
      "outputs": [
        {
          "internalType": "uint256",
          "name": "",
          "type": "uint256"
        }
      ],
      "stateMutability": "view",
      "type": "function"
    },
    {
      "inputs": [
        {
          "internalType": "uint256",
          "name": "shares",
          "type": "uint256"
        }
      ],
      "name": "calculateStablePoolAmount",
      "outputs": [
        {
          "internalType": "uint256",
          "name": "",
          "type": "uint256"
        }
      ],
      "stateMutability": "view",
      "type": "function"
    },
    {
      "inputs": [
        {
          "internalType": "address",
          "name": "user",
          "type": "address"
        }
      ],
      "name": "calculateStablePoolRewards",
      "outputs": [
        {
          "internalType": "uint256",
          "name": "",
          "type": "uint256"
        }
      ],
      "stateMutability": "view",
      "type": "function"
    },
    {
      "inputs": [
        {
          "internalType": "uint256",
          "name": "amount",
          "type": "uint256"
        }
      ],
      "name": "calculateStablePoolShares",
      "outputs": [
        {
          "internalType": "uint256",
          "name": "",
          "type": "uint256"
        }
      ],
      "stateMutability": "view",
      "type": "function"
    },
    {
      "inputs": [],
      "name": "claimMiningReward",
      "outputs": [],
      "stateMutability": "nonpayable",
      "type": "function"
    },
    {
      "inputs": [],
      "name": "claimStablePoolRewards",
      "outputs": [],
      "stateMutability": "nonpayable",
      "type": "function"
    },
    {
      "inputs": [
        {
          "internalType": "address",
          "name": "",
          "type": "address"
        }
      ],
      "name": "collateralDeposits",
      "outputs": [
        {
          "internalType": "uint256",
          "name": "",
          "type": "uint256"
        }
      ],
      "stateMutability": "view",
      "type": "function"
    },
    {
      "inputs": [
        {
          "internalType": "address",
          "name": "",
          "type": "address"
        }
      ],
      "name": "collateralShares",
      "outputs": [
        {
          "internalType": "uint256",
          "name": "",
          "type": "uint256"
        }
      ],
      "stateMutability": "view",
      "type": "function"
    },
    {
      "inputs": [],
      "name": "collectFees",
      "outputs": [],
      "stateMutability": "nonpayable",
      "type": "function"
    },
    {
      "inputs": [],
      "name": "currentPrice",
      "outputs": [
        {
          "internalType": "uint256",
          "name": "",
          "type": "uint256"
        }
      ],
      "stateMutability": "view",
      "type": "function"
    },
    {
      "inputs": [],
      "name": "deactivateEmergencyMode",
      "outputs": [],
      "stateMutability": "nonpayable",
      "type": "function"
    },
    {
      "inputs": [],
      "name": "decimals",
      "outputs": [
        {
          "internalType": "uint8",
          "name": "",
          "type": "uint8"
        }
      ],
      "stateMutability": "view",
      "type": "function"
    },
    {
      "inputs": [
        {
          "internalType": "uint256",
          "name": "amount",
          "type": "uint256"
        }
      ],
      "name": "depositCollateral",
      "outputs": [],
      "stateMutability": "nonpayable",
      "type": "function"
    },
    {
      "inputs": [
        {
          "internalType": "uint256",
          "name": "amount",
          "type": "uint256"
        }
      ],
      "name": "depositToStablePool",
      "outputs": [],
      "stateMutability": "nonpayable",
      "type": "function"
    },
    {
      "inputs": [],
      "name": "developmentFund",
      "outputs": [
        {
          "internalType": "uint256",
          "name": "",
          "type": "uint256"
        }
      ],
      "stateMutability": "view",
      "type": "function"
    },
    {
      "inputs": [],
      "name": "emergencyMode",
      "outputs": [
        {
          "internalType": "bool",
          "name": "",
          "type": "bool"
        }
      ],
      "stateMutability": "view",
      "type": "function"
    },
    {
      "inputs": [],
      "name": "emergencyModeTimestamp",
      "outputs": [
        {
          "internalType": "uint256",
          "name": "",
          "type": "uint256"
        }
      ],
      "stateMutability": "view",
      "type": "function"
    },
    {
      "inputs": [],
      "name": "forceDeactivateEmergencyMode",
      "outputs": [],
      "stateMutability": "nonpayable",
      "type": "function"
    },
    {
      "inputs": [
        {
          "internalType": "address",
          "name": "user",
          "type": "address"
        }
      ],
      "name": "getCollateralBalance",
      "outputs": [
        {
          "internalType": "uint256",
          "name": "",
          "type": "uint256"
        }
      ],
      "stateMutability": "view",
      "type": "function"
    },
    {
      "inputs": [],
      "name": "getCollateralRatio",
      "outputs": [
        {
          "internalType": "uint256",
          "name": "",
          "type": "uint256"
        }
      ],
      "stateMutability": "view",
      "type": "function"
    },
    {
      "inputs": [],
      "name": "getCurrentPrice",
      "outputs": [
        {
          "internalType": "uint256",
          "name": "",
          "type": "uint256"
        }
      ],
      "stateMutability": "view",
      "type": "function"
    },
    {
      "inputs": [
        {
          "internalType": "bytes32",
          "name": "role",
          "type": "bytes32"
        }
      ],
      "name": "getRoleAdmin",
      "outputs": [
        {
          "internalType": "bytes32",
          "name": "",
          "type": "bytes32"
        }
      ],
      "stateMutability": "view",
      "type": "function"
    },
    {
      "inputs": [
        {
          "internalType": "address",
          "name": "user",
          "type": "address"
        }
      ],
      "name": "getStablePoolBalance",
      "outputs": [
        {
          "internalType": "uint256",
          "name": "",
          "type": "uint256"
        }
      ],
      "stateMutability": "view",
      "type": "function"
    },
    {
      "inputs": [
        {
          "internalType": "bytes32",
          "name": "role",
          "type": "bytes32"
        },
        {
          "internalType": "address",
          "name": "account",
          "type": "address"
        }
      ],
      "name": "grantRole",
      "outputs": [],
      "stateMutability": "nonpayable",
      "type": "function"
    },
    {
      "inputs": [
        {
          "internalType": "bytes32",
          "name": "role",
          "type": "bytes32"
        },
        {
          "internalType": "address",
          "name": "account",
          "type": "address"
        }
      ],
      "name": "hasRole",
      "outputs": [
        {
          "internalType": "bool",
          "name": "",
          "type": "bool"
        }
      ],
      "stateMutability": "view",
      "type": "function"
    },
    {
      "inputs": [],
      "name": "hashProof",
      "outputs": [
        {
          "internalType": "contract HashProof",
          "name": "",
          "type": "address"
        }
      ],
      "stateMutability": "view",
      "type": "function"
    },
    {
      "inputs": [],
      "name": "insuranceFund",
      "outputs": [
        {
          "internalType": "uint256",
          "name": "",
          "type": "uint256"
        }
      ],
      "stateMutability": "view",
      "type": "function"
    },
    {
      "inputs": [],
      "name": "isEmergencyMode",
      "outputs": [
        {
          "internalType": "bool",
          "name": "",
          "type": "bool"
        }
      ],
      "stateMutability": "view",
      "type": "function"
    },
    {
      "inputs": [],
      "name": "lastHalvingTimestamp",
      "outputs": [
        {
          "internalType": "uint256",
          "name": "",
          "type": "uint256"
        }
      ],
      "stateMutability": "view",
      "type": "function"
    },
    {
      "inputs": [],
      "name": "lastPriceUpdate",
      "outputs": [
        {
          "internalType": "uint256",
          "name": "",
          "type": "uint256"
        }
      ],
      "stateMutability": "view",
      "type": "function"
    },
    {
      "inputs": [],
      "name": "manualUpdatePrice",
      "outputs": [],
      "stateMutability": "nonpayable",
      "type": "function"
    },
    {
      "inputs": [],
      "name": "marketingFund",
      "outputs": [
        {
          "internalType": "uint256",
          "name": "",
          "type": "uint256"
        }
      ],
      "stateMutability": "view",
      "type": "function"
    },
    {
      "inputs": [],
      "name": "miningFee",
      "outputs": [
        {
          "internalType": "uint256",
          "name": "",
          "type": "uint256"
        }
      ],
      "stateMutability": "view",
      "type": "function"
    },
    {
      "inputs": [],
      "name": "miningRewardRate",
      "outputs": [
        {
          "internalType": "uint256",
          "name": "",
          "type": "uint256"
        }
      ],
      "stateMutability": "view",
      "type": "function"
    },
    {
      "inputs": [],
      "name": "name",
      "outputs": [
        {
          "internalType": "string",
          "name": "",
          "type": "string"
        }
      ],
      "stateMutability": "view",
      "type": "function"
    },
    {
      "inputs": [],
      "name": "pause",
      "outputs": [],
      "stateMutability": "nonpayable",
      "type": "function"
    },
    {
      "inputs": [],
      "name": "paused",
      "outputs": [
        {
          "internalType": "bool",
          "name": "",
          "type": "bool"
        }
      ],
      "stateMutability": "view",
      "type": "function"
    },
    {
      "inputs": [
        {
          "internalType": "address",
          "name": "",
          "type": "address"
        }
      ],
      "name": "pendingRewards",
      "outputs": [
        {
          "internalType": "uint256",
          "name": "amount",
          "type": "uint256"
        },
        {
          "internalType": "uint256",
          "name": "timestamp",
          "type": "uint256"
        }
      ],
      "stateMutability": "view",
      "type": "function"
    },
    {
      "inputs": [],
      "name": "priceOracle",
      "outputs": [
        {
          "internalType": "contract IOracle",
          "name": "",
          "type": "address"
        }
      ],
      "stateMutability": "view",
      "type": "function"
    },
    {
      "inputs": [],
      "name": "priceUpdateInterval",
      "outputs": [
        {
          "internalType": "uint256",
          "name": "",
          "type": "uint256"
        }
      ],
      "stateMutability": "view",
      "type": "function"
    },
    {
      "inputs": [
        {
          "internalType": "bytes32",
          "name": "role",
          "type": "bytes32"
        },
        {
          "internalType": "address",
          "name": "callerConfirmation",
          "type": "address"
        }
      ],
      "name": "renounceRole",
      "outputs": [],
      "stateMutability": "nonpayable",
      "type": "function"
    },
    {
      "inputs": [
        {
          "internalType": "bytes32",
          "name": "role",
          "type": "bytes32"
        },
        {
          "internalType": "address",
          "name": "account",
          "type": "address"
        }
      ],
      "name": "revokeRole",
      "outputs": [],
      "stateMutability": "nonpayable",
      "type": "function"
    },
    {
      "inputs": [],
      "name": "rewardHalvingInterval",
      "outputs": [
        {
          "internalType": "uint256",
          "name": "",
          "type": "uint256"
        }
      ],
      "stateMutability": "view",
      "type": "function"
    },
    {
      "inputs": [
        {
          "internalType": "uint256",
          "name": "newFee",
          "type": "uint256"
        }
      ],
      "name": "setMiningFee",
      "outputs": [],
      "stateMutability": "nonpayable",
      "type": "function"
    },
    {
      "inputs": [
        {
          "internalType": "uint256",
          "name": "newRate",
          "type": "uint256"
        }
      ],
      "name": "setMiningRewardRate",
      "outputs": [],
      "stateMutability": "nonpayable",
      "type": "function"
    },
    {
      "inputs": [
        {
          "internalType": "address",
          "name": "oracleAddress",
          "type": "address"
        }
      ],
      "name": "setOracle",
      "outputs": [],
      "stateMutability": "nonpayable",
      "type": "function"
    },
    {
      "inputs": [
        {
          "internalType": "uint256",
          "name": "interval",
          "type": "uint256"
        }
      ],
      "name": "setPriceUpdateInterval",
      "outputs": [],
      "stateMutability": "nonpayable",
      "type": "function"
    },
    {
      "inputs": [
        {
          "internalType": "uint256",
          "name": "newAPY",
          "type": "uint256"
        }
      ],
      "name": "setStablePoolAPY",
      "outputs": [],
      "stateMutability": "nonpayable",
      "type": "function"
    },
    {
      "inputs": [
        {
          "internalType": "uint256",
          "name": "newFee",
          "type": "uint256"
        }
      ],
      "name": "setStablePoolFee",
      "outputs": [],
      "stateMutability": "nonpayable",
      "type": "function"
    },
    {
      "inputs": [
        {
          "internalType": "uint256",
          "name": "newFee",
          "type": "uint256"
        }
      ],
      "name": "setTransactionFee",
      "outputs": [],
      "stateMutability": "nonpayable",
      "type": "function"
    },
    {
      "inputs": [
        {
          "internalType": "uint256",
          "name": "newThreshold",
          "type": "uint256"
        }
      ],
      "name": "setVolatilityThreshold",
      "outputs": [],
      "stateMutability": "nonpayable",
      "type": "function"
    },
    {
      "inputs": [],
      "name": "stablePoolAPY",
      "outputs": [
        {
          "internalType": "uint256",
          "name": "",
          "type": "uint256"
        }
      ],
      "stateMutability": "view",
      "type": "function"
    },
    {
      "inputs": [
        {
          "internalType": "address",
          "name": "",
          "type": "address"
        }
      ],
      "name": "stablePoolDeposits",
      "outputs": [
        {
          "internalType": "uint256",
          "name": "",
          "type": "uint256"
        }
      ],
      "stateMutability": "view",
      "type": "function"
    },
    {
      "inputs": [],
      "name": "stablePoolFee",
      "outputs": [
        {
          "internalType": "uint256",
          "name": "",
          "type": "uint256"
        }
      ],
      "stateMutability": "view",
      "type": "function"
    },
    {
      "inputs": [
        {
          "internalType": "address",
          "name": "",
          "type": "address"
        }
      ],
      "name": "stablePoolLastClaim",
      "outputs": [
        {
          "internalType": "uint256",
          "name": "",
          "type": "uint256"
        }
      ],
      "stateMutability": "view",
      "type": "function"
    },
    {
      "inputs": [
        {
          "internalType": "address",
          "name": "",
          "type": "address"
        }
      ],
      "name": "stablePoolShares",
      "outputs": [
        {
          "internalType": "uint256",
          "name": "",
          "type": "uint256"
        }
      ],
      "stateMutability": "view",
      "type": "function"
    },
    {
      "inputs": [
        {
          "internalType": "bytes4",
          "name": "interfaceId",
          "type": "bytes4"
        }
      ],
      "name": "supportsInterface",
      "outputs": [
        {
          "internalType": "bool",
          "name": "",
          "type": "bool"
        }
      ],
      "stateMutability": "view",
      "type": "function"
    },
    {
      "inputs": [],
      "name": "symbol",
      "outputs": [
        {
          "internalType": "string",
          "name": "",
          "type": "string"
        }
      ],
      "stateMutability": "view",
      "type": "function"
    },
    {
      "inputs": [],
      "name": "totalCollateral",
      "outputs": [
        {
          "internalType": "uint256",
          "name": "",
          "type": "uint256"
        }
      ],
      "stateMutability": "view",
      "type": "function"
    },
    {
      "inputs": [],
      "name": "totalCollateralShares",
      "outputs": [
        {
          "internalType": "uint256",
          "name": "",
          "type": "uint256"
        }
      ],
      "stateMutability": "view",
      "type": "function"
    },
    {
      "inputs": [],
      "name": "totalStablePool",
      "outputs": [
        {
          "internalType": "uint256",
          "name": "",
          "type": "uint256"
        }
      ],
      "stateMutability": "view",
      "type": "function"
    },
    {
      "inputs": [],
      "name": "totalStablePoolShares",
      "outputs": [
        {
          "internalType": "uint256",
          "name": "",
          "type": "uint256"
        }
      ],
      "stateMutability": "view",
      "type": "function"
    },
    {
      "inputs": [],
      "name": "totalSupply",
      "outputs": [
        {
          "internalType": "uint256",
          "name": "",
          "type": "uint256"
        }
      ],
      "stateMutability": "view",
      "type": "function"
    },
    {
      "inputs": [],
      "name": "transactionFee",
      "outputs": [
        {
          "internalType": "uint256",
          "name": "",
          "type": "uint256"
        }
      ],
      "stateMutability": "view",
      "type": "function"
    },
    {
      "inputs": [
        {
          "internalType": "address",
          "name": "to",
          "type": "address"
        },
        {
          "internalType": "uint256",
          "name": "amount",
          "type": "uint256"
        }
      ],
      "name": "transfer",
      "outputs": [
        {
          "internalType": "bool",
          "name": "",
          "type": "bool"
        }
      ],
      "stateMutability": "nonpayable",
      "type": "function"
    },
    {
      "inputs": [
        {
          "internalType": "address",
          "name": "from",
          "type": "address"
        },
        {
          "internalType": "address",
          "name": "to",
          "type": "address"
        },
        {
          "internalType": "uint256",
          "name": "amount",
          "type": "uint256"
        }
      ],
      "name": "transferFrom",
      "outputs": [
        {
          "internalType": "bool",
          "name": "",
          "type": "bool"
        }
      ],
      "stateMutability": "nonpayable",
      "type": "function"
    },
    {
      "inputs": [],
      "name": "unpause",
      "outputs": [],
      "stateMutability": "nonpayable",
      "type": "function"
    },
    {
      "inputs": [],
      "name": "updatePrice",
      "outputs": [],
      "stateMutability": "nonpayable",
      "type": "function"
    },
    {
      "inputs": [],
      "name": "volatilityThreshold",
      "outputs": [
        {
          "internalType": "uint256",
          "name": "",
          "type": "uint256"
        }
      ],
      "stateMutability": "view",
      "type": "function"
    },
    {
      "inputs": [
        {
          "internalType": "uint256",
          "name": "shares",
          "type": "uint256"
        }
      ],
      "name": "withdrawCollateral",
      "outputs": [],
      "stateMutability": "nonpayable",
      "type": "function"
    },
    {
      "inputs": [
        {
          "internalType": "uint256",
          "name": "shares",
          "type": "uint256"
        }
      ],
      "name": "withdrawFromStablePool",
      "outputs": [],
      "stateMutability": "nonpayable",
      "type": "function"
    }
  ],
  "bytecode": "0x6080604052610e10600a90815568056bc75e2d63100000600b556301e13380600c556003600e556002600f5560016010556005601955601e55601f805460ff191690553480156200004e575f80fd5b506040516200309038038062003090833981016040819052620000719162000252565b604051806040016040528060088152602001672222a6a7a1a7a4a760c11b8152506040518060400160405280600481526020016344454d4f60e01b8152508160039081620000c091906200031f565b506004620000cf82826200031f565b505060068054610100600160a81b0319166101006001600160a01b0385160217905550670de0b6b3a7640000600855426009819055600d55620001135f33620001a2565b50620001407fa49807205ce4d355092ef5a8a18f56e8913cf4a201fbe287825b095693c2177533620001a2565b506200016d7f7935bd0ae54bc31f548c14dba4d37c5c64b3f8ca900cb468fb8abd54d5894f5533620001a2565b506200019a7f2dca0f5ce7e75a4b43fe2b0d6f5d0b7a2bf92ecf89f8f0aa17b8308b6703882133620001a2565b5050620003eb565b5f8281526005602090815260408083206001600160a01b038516845290915281205460ff1662000249575f8381526005602090815260408083206001600160a01b03861684529091529020805460ff19166001179055620002003390565b6001600160a01b0316826001600160a01b0316847f2f8788117e7eff1d82e926ec794901d17c78024a50270940304540a733656f0d60405160405180910390a45060016200024c565b505f5b92915050565b5f6020828403121562000263575f80fd5b81516001600160a01b03811681146200027a575f80fd5b9392505050565b634e487b7160e01b5f52604160045260245ffd5b600181811c90821680620002aa57607f821691505b602082108103620002c957634e487b7160e01b5f52602260045260245ffd5b50919050565b601f8211156200031a57805f5260205f20601f840160051c81016020851015620002f65750805b601f840160051c820191505b8181101562000317575f815560010162000302565b50505b505050565b81516001600160401b038111156200033b576200033b62000281565b62000353816200034c845462000295565b84620002cf565b602080601f83116001811462000389575f8415620003715750858301515b5f19600386901b1c1916600185901b178555620003e3565b5f85815260208120601f198616915b82811015620003b95788860151825594840194600190910190840162000398565b5085821015620003d757878501515f19600388901b60f8161c191681555b505060018460011b0185555b505050505050565b612c9780620003f95f395ff3fe608060405234801561000f575f80fd5b50600436106104c6575f3560e01c80637f8b272611610279578063cd1e51f211610156578063d9e69a05116100ca578063eb91d37e1161008f578063eb91d37e14610a55578063ed71880714610a5d578063edc7d04f14610a65578063f15ad59c14610a84578063f256b13014610aa3578063f7be381914610aac575f80fd5b8063d9e69a05146109d0578063dd62ed3e146109d8578063e0262ebe14610a10578063e2741fe414610a23578063e94cdb3c14610a42575f80fd5b8063d2d880201161011b578063d2d8802014610971578063d547741f14610990578063d588acc4146109a3578063d5ee9c38146109ab578063d71c71fb146109b4578063d7f1871b146109bd575f80fd5b8063cd1e51f21461093b578063cd377c5314610944578063ceac570a1461094c578063d1219dda14610955578063d1d736351461095e575f80fd5b80639ed3edf0116101ed578063adec07c7116101b2578063adec07c7146108dd578063b7902303146108f0578063bad4a01f146108f9578063c56792cf1461090c578063c87965721461091f578063ccc5749014610927575f80fd5b80639ed3edf01461089e5780639fe88c84146108a7578063a217fddf146108b0578063a9059cbb146108b7578063aafce771146108ca575f80fd5b806391d148541161023e57806391d14854146108565780639399232d1461086957806395d89b411461087c57806399b20eaf146108845780639aff309f1461088c5780639d1b464a14610895575f80fd5b80637f8b2726146108215780638456cb591461082a57806385ca6e851461083257806388ea8fd8146108455780638a2381d71461084d575f80fd5b8063391e0d09116103a75780636284e3971161031b5780636cf1790a116102e05780636cf1790a1461079157806370a08231146107b057806375b238fc146107d85780637adbf973146107ec5780637e99ce59146107ff5780637eddab541461080e575f80fd5b80636284e3971461074157806362a2a47c14610749578063650fe9c814610770578063673a7e28146107805780636949faeb14610788575f80fd5b80634ac8eb5f1161036c5780634ac8eb5f146106eb57806350d6c8ca146106f4578063561c6150146107075780635c975abb1461071a5780635ffde7be146107255780636112fe2e1461072e575f80fd5b8063391e0d09146106a55780633dab0015146106ae5780633f4ba83a146106b85780633fcdb9ea146106c0578063420ed6e3146106d3575f80fd5b806323b872dd1161043e5780632703ee85116104035780632703ee85146105fb5780632f2ff15d14610623578063313ce5671461063657806331d7a2621461064557806332cb6b0c1461068057806336568abe14610692575f80fd5b806323b872dd1461058a578063248a9ca31461059d57806324e8c00e146105bf5780632630c12f146105c8578063267f3419146105f3575f80fd5b8063096a8ab71161048f578063096a8ab71461053c5780630ab301ec1461054f5780631431e63d1461055757806318160ddd1461056e5780631b836edd1461057657806320a194b81461057f575f80fd5b80627a5659146104ca57806301ffc9a7146104df57806306fdde03146105075780630905f5601461051c578063095ea7b314610529575b5f80fd5b6104dd6104d8366004612894565b610abf565b005b6104f26104ed3660046128ab565b610c52565b60405190151581526020015b60405180910390f35b61050f610c88565b6040516104fe91906128d9565b601f546104f29060ff1681565b6104f2610537366004612940565b610d18565b6104dd61054a366004612894565b610d2f565b6104dd610dd4565b61056060175481565b6040519081526020016104fe565b600254610560565b61056060105481565b601f5460ff166104f2565b6104f2610598366004612968565b610e1e565b6105606105ab366004612894565b5f9081526005602052604090206001015490565b610560600c5481565b6007546105db906001600160a01b031681565b6040516001600160a01b0390911681526020016104fe565b6104dd610e7d565b6105606106093660046129a1565b6001600160a01b03165f908152601a602052604090205490565b6104dd6106313660046129ba565b610eec565b604051601281526020016104fe565b61066b6106533660046129a1565b60216020525f90815260409020805460019091015482565b604080519283526020830191909152016104fe565b6105606a52b7d2dcc80cd2e400000081565b6104dd6106a03660046129ba565b610f16565b610560600d5481565b6105606201518081565b6104dd610f4e565b6105606106ce366004612894565b610f6d565b6006546105db9061010090046001600160a01b031681565b610560601c5481565b610560610702366004612894565b610f95565b610560610715366004612894565b610fb6565b60065460ff166104f2565b610560600a5481565b6104dd61073c366004612894565b610fd4565b610560603281565b6105607f2dca0f5ce7e75a4b43fe2b0d6f5d0b7a2bf92ecf89f8f0aa17b8308b6703882181565b61056068056bc75e2d6310000081565b6104dd6111ed565b61056060095481565b61056061079f3660046129a1565b60156020525f908152604090205481565b6105606107be3660046129a1565b6001600160a01b03165f9081526020819052604090205490565b6105605f80516020612c4283398151915281565b6104dd6107fa3660046129a1565b6114c8565b610560670de0b6b3a764000081565b6104dd61081c366004612894565b61152d565b610560601d5481565b6104dd611591565b6105606108403660046129a1565b6115b0565b6104dd61174a565b61056060125481565b6104f26108643660046129ba565b611769565b6104dd610877366004612894565b611793565b61050f61181f565b6104dd61182e565b610560600f5481565b61056060085481565b610560600e5481565b610560601e5481565b6105605f81565b6104f26108c5366004612940565b611903565b6104dd6108d8366004612894565b611956565b6104dd6108eb366004612894565b611b39565b61056060115481565b6104dd610907366004612894565b611b9c565b61056061091a3660046129a1565b611cb8565b6104dd611d8f565b6105605f80516020612c2283398151915281565b61056060185481565b610560611e4d565b61056060195481565b61056061138881565b6104dd61096c366004612894565b611e82565b61056061097f3660046129a1565b60166020525f908152604090205481565b6104dd61099e3660046129ba565b611ee5565b6104dd611f09565b610560600b5481565b61056060205481565b6105606109cb3660046129a1565b612061565b610560609681565b6105606109e63660046129e4565b6001600160a01b039182165f90815260016020908152604080832093909416825291909152205490565b6104dd610a1e366004612894565b61208d565b610560610a313660046129a1565b60146020525f908152604090205481565b6104dd610a50366004612894565b6120fb565b600854610560565b610560612197565b610560610a733660046129a1565b601a6020525f908152604090205481565b610560610a923660046129a1565b601b6020525f908152604090205481565b61056060135481565b610560610aba366004612894565b6121fc565b610ac761221d565b5f8111610b1b5760405162461bcd60e51b815260206004820152601d60248201527f416d6f756e74206d7573742062652067726561746572207468616e203000000060448201526064015b60405180910390fd5b601f5460ff1615610b3e5760405162461bcd60e51b8152600401610b1290612a0c565b5f6103e860105483610b509190612a4f565b610b5a9190612a66565b90505f610b678284612a85565b90505f610b7382610fb6565b9050610b80333086612243565b335f9081526014602052604081208054849290610b9e908490612a98565b9091555050335f9081526015602052604081208054839290610bc1908490612a98565b925050819055508160175f828254610bd99190612a98565b925050819055508060185f828254610bf19190612a98565b9091555050335f908152601660205260409020429055610c10836122a0565b604080518381526020810183905233917fb3fb9ab412e799ee0bcf11026b55602af7e7cd3297904a586d020804f9cb3fdd91015b60405180910390a250505050565b5f6001600160e01b03198216637965db0b60e01b1480610c8257506301ffc9a760e01b6001600160e01b03198316145b92915050565b606060038054610c9790612aab565b80601f0160208091040260200160405190810160405280929190818152602001828054610cc390612aab565b8015610d0e5780601f10610ce557610100808354040283529160200191610d0e565b820191905f5260205f20905b815481529060010190602001808311610cf157829003601f168201915b5050505050905090565b5f33610d258185856122aa565b5060019392505050565b5f80516020612c22833981519152610d46816122b7565b600a821115610d975760405162461bcd60e51b815260206004820152601860248201527f5472616e73616374696f6e2066656520746f6f206869676800000000000000006044820152606401610b12565b600e8290556040518281527f21ea14061974d1886e13e854a8a738e5177a587170a7f767a2b182a3f8b8dcdf906020015b60405180910390a15050565b5f610dde816122b7565b601f805460ff191690556040514281527f2ea256b6b50650528fb4b384ca1e851487ce92d001640e4b0d904216488348359060200160405180910390a150565b5f806103e8600e5484610e319190612a4f565b610e3b9190612a66565b90505f610e488285612a85565b9050610e558633866122c1565b610e60868683612243565b8115610e7157610e71863084612243565b50600195945050505050565b610e8561221d565b5f610e8f33611cb8565b90508015610ee957335f818152601660205260409020429055610eb29082612337565b60405181815233907fcd27c5ca65dbedebefb2ac1764022e6e9f92dda1a59d8f5b3478f7d45d9bf6a7906020015b60405180910390a25b50565b5f82815260056020526040902060010154610f06816122b7565b610f10838361236f565b50505050565b6001600160a01b0381163314610f3f5760405163334bd91960e11b815260040160405180910390fd5b610f498282612400565b505050565b5f80516020612c42833981519152610f65816122b7565b610ee961246b565b5f601d545f03610f7b575090565b601c54601d54610f8b9084612a4f565b610c829190612a66565b5f6018545f03610fa657505f919050565b601854601754610f8b9084612a4f565b5f6018545f03610fc4575090565b601754601854610f8b9084612a4f565b610fdc61221d565b5f811161102b5760405162461bcd60e51b815260206004820152601d60248201527f536861726573206d7573742062652067726561746572207468616e20300000006044820152606401610b12565b335f908152601b602052604090205481111561107f5760405162461bcd60e51b8152602060048201526013602482015272496e73756666696369656e742073686172657360681b6044820152606401610b12565b601f5460ff16156110a25760405162461bcd60e51b8152600401610b1290612a0c565b5f6110ac826121fc565b9050606460966110bb60025490565b6110c59190612a4f565b6110cf9190612a66565b81601c546110dd9190612a85565b101561112b5760405162461bcd60e51b815260206004820152601960248201527f436f6c6c61746572616c20726174696f2076696f6c61746564000000000000006044820152606401610b12565b335f908152601b602052604081208054849290611149908490612a85565b9091555050335f908152601a60205260408120805483929061116c908490612a85565b9250508190555081601d5f8282546111849190612a85565b9250508190555080601c5f82825461119c9190612a85565b909155506111ad9050303383612243565b604080518281526020810184905233917feabc64c28cf51d847639d4a0a7c5969a6151df98cbfcbd589c4aafa113cddd5391015b60405180910390a25050565b6111f561221d565b600a546009546112059190612a98565b42101561125e5760405162461bcd60e51b815260206004820152602160248201527f50726963652075706461746520696e74657276616c206e6f7420656c617073656044820152601960fa1b6064820152608401610b12565b6007545f906001600160a01b03161561137e57600754604080516350d25bcd60e01b815290515f926001600160a01b0316916350d25bcd9160048083019260209291908290030181865afa1580156112b8573d5f803e3d5ffd5b505050506040513d601f19601f820116820180604052508101906112dc9190612ae3565b90505f60075f9054906101000a90046001600160a01b03166001600160a01b031663313ce5676040518163ffffffff1660e01b8152600401602060405180830381865afa15801561132f573d5f803e3d5ffd5b505050506040513d601f19601f820116820180604052508101906113539190612afa565b9050611360816012612b1a565b61136b90600a612c13565b6113759083612a4f565b92505050611410565b5f61138860025490565b90505f6096601c54606461139c9190612a4f565b6113a69190612a66565b6017546113b4906002612a4f565b6113be9190612a98565b9050808211156113ec576103e86008546103e36113db9190612a4f565b6113e59190612a66565b925061140d565b80821015611407576103e86008546103ed6113db9190612a4f565b60085492505b50505b5f600854821161142d57816008546114289190612a85565b61143a565b60085461143a9083612a85565b90505f670de0b6b3a7640000611451836064612a4f565b61145b9190612a66565b9050601e54811180156114715750601f5460ff16155b1561147e5761147e6124be565b60088390554260098190556040805185815260208101929092527f945c1c4e99aa89f648fbfe3df471b916f719e16d960fcec0737d4d56bd696838910160405180910390a1505050565b5f80516020612c428339815191526114df816122b7565b600780546001600160a01b0319166001600160a01b0384169081179091556040519081527f3df77beb5db05fcdd70a30fc8adf3f83f9501b68579455adbd100b818094039490602001610dc8565b5f80516020612c22833981519152611544816122b7565b600582111561158b5760405162461bcd60e51b815260206004820152601360248201527209ad2dcd2dcce40cccaca40e8dede40d0d2ced606b1b6044820152606401610b12565b50600f55565b5f80516020612c428339815191526115a8816122b7565b610ee96124ff565b600654604051631b184a8560e31b81526001600160a01b0383811660048301525f9283926101009091049091169063d8c2542890602401602060405180830381865afa158015611602573d5f803e3d5ffd5b505050506040513d601f19601f820116820180604052508101906116269190612ae3565b9050805f0361163757505f92915050565b600654604051631daea20f60e11b81526001600160a01b0385811660048301525f9261010090041690633b5d441e90602401602060405180830381865afa158015611684573d5f803e3d5ffd5b505050506040513d601f19601f820116820180604052508101906116a89190612ae3565b6116b29042612a85565b90505f606483600b546116c59190612a4f565b6116cf9190612a66565b90505f620151806116e08484612a4f565b6116ea9190612a66565b90505f6116f5612197565b9050670de0b6b3a764000061170a8284612a4f565b6117149190612a66565b91505f6103e8600f54846117289190612a4f565b6117329190612a66565b905061173e8184612a85565b98975050505050505050565b5f80516020612c42833981519152611761816122b7565b610ee96111ed565b5f9182526005602090815260408084206001600160a01b0393909316845291905290205460ff1690565b5f80516020612c228339815191526117aa816122b7565b60148211156117ea5760405162461bcd60e51b815260206004820152600c60248201526b082a0b240e8dede40d0d2ced60a31b6044820152606401610b12565b60198290556040518281527fc66add8317786c6ffc8d703cdebe40649d6adfec6da17e67ba4e49fa5815af9290602001610dc8565b606060048054610c9790612aab565b5f80516020612c42833981519152611845816122b7565b601f5460ff166118975760405162461bcd60e51b815260206004820152601960248201527f456d657267656e6379206d6f6465206e6f7420616374697665000000000000006044820152606401610b12565b620151806020546118a89190612a98565b421015610dde5760405162461bcd60e51b815260206004820152602360248201527f456d657267656e6379206d6f6465206475726174696f6e206e6f7420656c61706044820152621cd95960ea1b6064820152608401610b12565b5f806103e8600e54846119169190612a4f565b6119209190612a66565b90505f61192d8285612a85565b905061193a338683612243565b811561194b5761194b333084612243565b506001949350505050565b61195e61221d565b5f81116119ad5760405162461bcd60e51b815260206004820152601d60248201527f536861726573206d7573742062652067726561746572207468616e20300000006044820152606401610b12565b335f90815260156020526040902054811115611a015760405162461bcd60e51b8152602060048201526013602482015272496e73756666696369656e742073686172657360681b6044820152606401610b12565b601f5460ff1615611a245760405162461bcd60e51b8152600401610b1290612a0c565b611a2c610e7d565b5f611a3682610f95565b90505f6103e860105483611a4a9190612a4f565b611a549190612a66565b90505f611a618284612a85565b335f90815260156020526040812080549293508692909190611a84908490612a85565b9091555050335f9081526014602052604081208054859290611aa7908490612a85565b925050819055508360185f828254611abf9190612a85565b925050819055508260175f828254611ad79190612a85565b9091555050335f908152601660205260409020429055611af6826122a0565b611b01303383612243565b604080518281526020810186905233917f0ac4d08bb6a95134e152001f3914956cd069c0f08fde29b34792deac47155d819101610c44565b5f80516020612c22833981519152611b50816122b7565b603c821015611b965760405162461bcd60e51b8152602060048201526012602482015271125b9d195c9d985b081d1bdbc81cda1bdc9d60721b6044820152606401610b12565b50600a55565b611ba461221d565b5f8111611bf35760405162461bcd60e51b815260206004820152601d60248201527f416d6f756e74206d7573742062652067726561746572207468616e20300000006044820152606401610b12565b5f611bfd82610f6d565b9050611c0a333084612243565b335f908152601a602052604081208054849290611c28908490612a98565b9091555050335f908152601b602052604081208054839290611c4b908490612a98565b9250508190555081601c5f828254611c639190612a98565b9250508190555080601d5f828254611c7b9190612a98565b9091555050604080518381526020810183905233917f56980cb98b568e9a287b212724142cec16ea92c72b529e2b0f1d89f41918286991016111e1565b6001600160a01b0381165f908152601560205260408120548103611cdd57505f919050565b6001600160a01b0382165f90815260166020526040812054611cff9042612a85565b90505f618e94601754601954611d159190612a4f565b611d1f9190612a66565b6018546001600160a01b0386165f9081526015602052604081205492935091611d5090670de0b6b3a7640000612a4f565b611d5a9190612a66565b905069124bc0ddd92e5600000081611d728585612a4f565b611d7c9190612a4f565b611d869190612a66565b95945050505050565b7f2dca0f5ce7e75a4b43fe2b0d6f5d0b7a2bf92ecf89f8f0aa17b8308b67038821611db9816122b7565b4780611dfc5760405162461bcd60e51b8152602060048201526012602482015271139bc81999595cc81d1bc818dbdb1b1958dd60721b6044820152606401610b12565b611e06308261253c565b604080518281525f6020820181905291810182905260608101919091527ff5d590414d56d256b8c16b850d0b57f2f5d2ed90686166e150b48a96f0dbdd6190608001610dc8565b5f611e5760025490565b5f03611e6257505f90565b600254601c54611e73906064612a4f565b611e7d9190612a66565b905090565b5f80516020612c22833981519152611e99816122b7565b6032821115611edf5760405162461bcd60e51b81526020600482015260126024820152710a8d0e4cae6d0ded8c840e8dede40d0d2ced60731b6044820152606401610b12565b50601e55565b5f82815260056020526040902060010154611eff816122b7565b610f108383612400565b611f1161221d565b601f5460ff1615611f345760405162461bcd60e51b8152600401610b1290612a0c565b611f3c612570565b5f611f46336115b0565b90505f8111611f8c5760405162461bcd60e51b81526020600482015260126024820152714e6f2070656e64696e67207265776172647360701b6044820152606401610b12565b6a52b7d2dcc80cd2e400000081611fa260025490565b611fac9190612a98565b1115611fef5760405162461bcd60e51b815260206004820152601260248201527113585e081cdd5c1c1b1e481c995858da195960721b6044820152606401610b12565b6040805180820182525f8082524260208084019182523380845260219091529390912091518255516001909101556120279082612337565b61202f6111ed565b60405181815233907f537270d4616ff4b75190285f7c43204811ccf1611184b8a26654f4c4ad17ecab90602001610ee0565b5f61206b82611cb8565b6001600160a01b0383165f90815260146020526040902054610c829190612a98565b5f80516020612c228339815191526120a4816122b7565b60058211156120f55760405162461bcd60e51b815260206004820152601860248201527f537461626c6520706f6f6c2066656520746f6f206869676800000000000000006044820152606401610b12565b50601055565b5f80516020612c22833981519152612112816122b7565b68056bc75e2d631000008211156121625760405162461bcd60e51b81526020600482015260146024820152730a4caeec2e4c840e4c2e8ca40e8dede40d0d2ced60631b6044820152606401610b12565b600b8290556040518281527f9a79995c9f85b74d9dc10da7504c2040702ab372a95a3d871e8bc5351dc682b290602001610dc8565b5f670de0b6b3a764000060085411156121c057600854611e73670de0b6b3a76400006064612a4f565b5f670de0b6b3a764000060085460646121d99190612a4f565b6121e39190612a66565b9050603281106121f357806121f6565b60325b91505090565b5f601d545f0361220d57505f919050565b601d54601c54610f8b9084612a4f565b60065460ff16156122415760405163d93c066560e01b815260040160405180910390fd5b565b6001600160a01b03831661226c57604051634b637e8f60e11b81525f6004820152602401610b12565b6001600160a01b0382166122955760405163ec442f0560e01b81525f6004820152602401610b12565b610f498383836125d4565b610ee9308261253c565b610f498383836001612640565b610ee98133612712565b6001600160a01b038381165f908152600160209081526040808320938616835292905220545f19811015610f10578181101561232957604051637dc7a0d960e11b81526001600160a01b03841660048201526024810182905260448101839052606401610b12565b610f1084848484035f612640565b6001600160a01b0382166123605760405163ec442f0560e01b81525f6004820152602401610b12565b61236b5f83836125d4565b5050565b5f61237a8383611769565b6123f9575f8381526005602090815260408083206001600160a01b03861684529091529020805460ff191660011790556123b13390565b6001600160a01b0316826001600160a01b0316847f2f8788117e7eff1d82e926ec794901d17c78024a50270940304540a733656f0d60405160405180910390a4506001610c82565b505f610c82565b5f61240b8383611769565b156123f9575f8381526005602090815260408083206001600160a01b0386168085529252808320805460ff1916905551339286917ff6391f5c32d9c69d2a47ea670b442974b53935d1edc7fd64eb21e047a839171b9190a4506001610c82565b61247361274b565b6006805460ff191690557f5db9ee0a495bf2e6ff9c91a7834c1ba4fdd244a5e8aa4e537bd38aeae4b073aa335b6040516001600160a01b0390911681526020015b60405180910390a1565b601f805460ff191660011790554260208181556040519182527f5fa9abb83376468762d4533d9cd0a8f21edf0033fa06b47347578fb235a92edc91016124b4565b61250761221d565b6006805460ff191660011790557f62e78cea01bee320cd4e420270b5ea74000d11b0c9f74754ebdbfc544b05a2586124a03390565b6001600160a01b03821661256557604051634b637e8f60e11b81525f6004820152602401610b12565b61236b825f836125d4565b600c54600d546125809190612a98565b4210612241576002600b5f8282546125989190612a66565b909155505042600d55600b546040519081527f9a79995c9f85b74d9dc10da7504c2040702ab372a95a3d871e8bc5351dc682b2906020016124b4565b60065460ff16156126355760405162461bcd60e51b815260206004820152602560248201527f5061757361626c653a20746f6b656e207472616e73666572207768696c652070604482015264185d5cd95960da1b6064820152608401610b12565b610f4983838361276e565b6001600160a01b0384166126695760405163e602df0560e01b81525f6004820152602401610b12565b6001600160a01b03831661269257604051634a1406b160e11b81525f6004820152602401610b12565b6001600160a01b038085165f9081526001602090815260408083209387168352929052208290558015610f1057826001600160a01b0316846001600160a01b03167f8c5be1e5ebec7d5bd14f71427d1e84f3dd0314c0f7b2291e5b200ac8c7c3b9258460405161270491815260200190565b60405180910390a350505050565b61271c8282611769565b61236b5760405163e2517d3f60e01b81526001600160a01b038216600482015260248101839052604401610b12565b60065460ff1661224157604051638dfc202b60e01b815260040160405180910390fd5b6001600160a01b038316612798578060025f82825461278d9190612a98565b909155506128089050565b6001600160a01b0383165f90815260208190526040902054818110156127ea5760405163391434e360e21b81526001600160a01b03851660048201526024810182905260448101839052606401610b12565b6001600160a01b0384165f9081526020819052604090209082900390555b6001600160a01b03821661282457600280548290039055612842565b6001600160a01b0382165f9081526020819052604090208054820190555b816001600160a01b0316836001600160a01b03167fddf252ad1be2c89b69c2b068fc378daa952ba7f163c4a11628f55a4df523b3ef8360405161288791815260200190565b60405180910390a3505050565b5f602082840312156128a4575f80fd5b5035919050565b5f602082840312156128bb575f80fd5b81356001600160e01b0319811681146128d2575f80fd5b9392505050565b5f602080835283518060208501525f5b81811015612905578581018301518582016040015282016128e9565b505f604082860101526040601f19601f8301168501019250505092915050565b80356001600160a01b038116811461293b575f80fd5b919050565b5f8060408385031215612951575f80fd5b61295a83612925565b946020939093013593505050565b5f805f6060848603121561297a575f80fd5b61298384612925565b925061299160208501612925565b9150604084013590509250925092565b5f602082840312156129b1575f80fd5b6128d282612925565b5f80604083850312156129cb575f80fd5b823591506129db60208401612925565b90509250929050565b5f80604083850312156129f5575f80fd5b6129fe83612925565b91506129db60208401612925565b602080825260159082015274456d657267656e6379206d6f64652061637469766560581b604082015260600190565b634e487b7160e01b5f52601160045260245ffd5b8082028115828204841417610c8257610c82612a3b565b5f82612a8057634e487b7160e01b5f52601260045260245ffd5b500490565b81810381811115610c8257610c82612a3b565b80820180821115610c8257610c82612a3b565b600181811c90821680612abf57607f821691505b602082108103612add57634e487b7160e01b5f52602260045260245ffd5b50919050565b5f60208284031215612af3575f80fd5b5051919050565b5f60208284031215612b0a575f80fd5b815160ff811681146128d2575f80fd5b60ff8281168282160390811115610c8257610c82612a3b565b600181815b80851115612b6d57815f1904821115612b5357612b53612a3b565b80851615612b6057918102915b93841c9390800290612b38565b509250929050565b5f82612b8357506001610c82565b81612b8f57505f610c82565b8160018114612ba55760028114612baf57612bcb565b6001915050610c82565b60ff841115612bc057612bc0612a3b565b50506001821b610c82565b5060208310610133831016604e8410600b8410161715612bee575081810a610c82565b612bf88383612b33565b805f1904821115612c0b57612c0b612a3b565b029392505050565b5f6128d260ff841683612b7556fe7935bd0ae54bc31f548c14dba4d37c5c64b3f8ca900cb468fb8abd54d5894f55a49807205ce4d355092ef5a8a18f56e8913cf4a201fbe287825b095693c21775a26469706673582212206b1df3d71f4b39cc38f566912eeb4b9a1190a41b173d733753cbda873c8d254364736f6c63430008180033",
  "linkReferences": {},
  "deployedLinkReferences": {},
  "immutableReferences": {},
  "inputSourceName": "project/contracts/DEMOCOIN.sol",
  "buildInfoId": "solc-0_8_24-8042ce3802024388053a05e7026c2e03329468fc"
}